:020000040800F2
:10000000F810002045010008271C0008ED1A000820
:10001000251C00087D080008D91F0008000000000A
:100020000000000000000000000000007D1C00082F
:10003000BD09000800000000291C00087F1C000802
:100040005F0100085F0100085F0100085F01000810
:100050005F0100085F0100085F0100085F01000800
:100060005F0100085F0100085F0100085F010008F0
:100070005F0100085F0100085F0100085F010008E0
:100080005F0100085F0100085F0100085F010008D0
:100090005F0100085F0100085F0100085F010008C0
:1000A0005F0100085F0100085F0100085F010008B0
:1000B0005F0100085F0100085F0100085F010008A0
:1000C0005F0100085F0100085F0100085F01000890
:1000D0005F0100085F0100085F010008CD1F0008F4
:1000E0005F0100085F0100085F0100085F01000870
:1000F0005F0100085F0100085F0100085F01000860
:100100005F0100085F0100085F0100085F0100084F
:100110005F0100085F0100085F0100085F0100083F
:100120005F0100085F0100085F0100085F0100082F
:10013000DFF80CD000F0E0F9004800471D27000868
:10014000F81000200648804706480047FEE7FEE713
:10015000FEE7FEE7FEE7FEE7FEE7FEE7FEE7FEE777
:10016000E11C00083101000840EA01039B0703D0AD
:1001700009E008C9121F08C0042AFAD203E011F8E6
:10018000013B00F8013B521EF9D27047D2B201E0A8
:1001900000F8012B491EFBD270470022F6E710B58C
:1001A00013460A4604461946FFF7F0FF204610BDE5
:1001B00030B505462A460B4612F8010B13F8014BE1
:1001C00008B1A042F8D01CB1002802D06D1CF1E7A4
:1001D000284630BD421C10F8011B0029FBD1801AB3
:1001E000704700000FB400B58DB010A909900B90B6
:1001F00000914FF0FF300A9000200C9005480690C7
:10020000054807906A4609A80F9900F047F90DB014
:100210005DF814FBB9040008D70400082DE9FF5F5E
:100220001D464FF0FF3BD5E9014691465F464FF032
:100230000008A9697F1C01988847296A8246884777
:100240000028F6D1BAF1FF3F0CD024F4C064002E90
:1002500019DD600614D5BAF12B0F09D0BAF12D0FB4
:100260000ED103E0584604B0BDE8F09F44F480642A
:10027000A9697F1C01988847761E8246002E02DD00
:10028000BAF1300F03D0B9F1000F26D032E0A969DE
:10029000761E44F400747F1C019888478246002E25
:1002A00005DDBAF1780F06D0BAF1580F03D0B9F1D5
:1002B000000F10D01EE0B9F1000F02D0B9F1100FFD
:1002C00018D1A969761E24F400747F1C0198884710
:1002D0008246102002E0082000E00A20814609E062
:1002E00008FB0908A969761E44F400747F1C019874
:1002F00088478246002E05DD4946504600F0BAF890
:100300000028EDDAE96901988847A00502D46FF06A
:100310000100A8E7E00725D1600613D5600502D5E6
:10032000C8F1000000E0404629680A1D2A600968FB
:10033000220501D5087015E0220701D5088011E0DB
:1003400008600FE02868011D29600068210502D5BA
:1003500080F8008006E0210702D5A0F8008001E0C7
:10036000C0F8008038467EE72DE9FF5FD2E901A79B
:100370004FF00008916999461446DDF838B04646BA
:1003800001988847054659EA0B0005D009E0A169A4
:10039000761C019888470546216A28468847002828
:1003A000F5D1681C03D05FEACA7005D015E04FF0A4
:1003B000FF3004B0BDE8F09F2068011D2160D0F837
:1003C00000800AE05FEACA7001D108F8015BA16908
:1003D000761C7F1E019888470546002F1ADD681C91
:1003E00018D0B9F1000F0DD0E81705EBD06042111D
:1003F00020F01F0059F822102A1A012090400142D3
:10040000E0D107E0BBF1000FDCD1216A2846884724
:100410000028D7D0E16901988847BBF1000F07D1C8
:10042000002E05DD5FEACA7002D1002188F80010B5
:10043000A068B84203DDBBF1000F03D017B16FF025
:100440000100B6E73046B4E730B50B460146002060
:100450002022012409E021FA02F59D4205D303FA86
:1004600002F5491B04FA02F52844151EA2F1010207
:10047000F1DC30BD3A2800D2303820F02002412A89
:1004800001D3A2F13700884201D34FF0FF3070470B
:10049000026811441378016018467047D16004491E
:1004A00051610449116200211161114600F03CB80C
:1004B000910400081D050008426842B1016811F866
:1004C000013B23B1521EC0E90012184670470121BA
:1004D000C160881E704742685AB1C368016843B959
:1004E00083688B4205D0491E521CC0E900120020CF
:1004F00070474FF0FF307047064C074D06E0E0684C
:1005000040F0010394E8070098471034AC42F6D35A
:10051000FFF712FE0C2900082C290008C0B24FF486
:10052000F05100F097B900002DE9F34F8BB04FF078
:10053000000801F10C000C464FF0010B46460DF18E
:10054000080A01906269012101989047051E2DD08B
:10055000252D2CD0216A8847C0B1626901210198FC
:100560009047216A88470028F7D1411E62690198A7
:10057000904700E0761CA1690B988847216A88475C
:100580000028F7D1E1690B988847DBE7A1690B9850
:1005900088470746A84201D1761CD3E7E1690B984A
:1005A00088477F1C02D1B8F1000F6FD046E10027C9
:1005B00062693D463946019890472A2804D162690C
:1005C0000121019890470125DFF884926269012199
:1005D00001989047A0F130010A290AD24F45E5DC85
:1005E00007EB870100EB4107303FDFD445F01005F2
:1005F000ECE7E90601D46FF000476C280AD04C28DC
:1006000014D0682815D06A280DD074281CD07A28F8
:100610001AD01DE062690121019890476C2802D030
:1006200045F0040514E045F002050DE045F0200515
:100630000AE06269012101989047682802D045F0DC
:10064000080505E045F400656269012101989047BD
:10065000C4E9015765283DD019DC58287AD00CDC54
:10066000452837D004DC252826D0412831D131E077
:1006700046282FD047282CD12CE05B2877D0612842
:1006800028D063287CD0642823D15AE0D0E06F289A
:1006900048D008DC66281DD067281BD0692821D0E7
:1006A0006E2816D127E0702845D0732868D07528A9
:1006B00047D078280DD14DE0A1690B9888470546B1
:1006C00025283FF469AFE1690B9888476D1C3FF41A
:1006D0006AAFB3E023466A466FF001000B99AFF3AF
:1006E00000809EE045F040006060A80723464FF080
:1006F000000236D43EE0E8077FF447AF2068011DD2
:1007000021600068290501D506701BE7290701D57E
:10071000068017E7A90703D5F117C0E9006111E7C3
:1007200006600FE745F040006060A80723464FF0E1
:10073000080216D41EE040F60E0125EA01006060B2
:1007400016E045F040006060A80723464FF00A021B
:1007500007D40FE045F040006060A80708D52346A5
:1007600010226FF001000B99AFF3008059E007E011
:10077000234610226FF001000B99FFF74FFD50E068
:100780004FF000094F464B46632802D05B2806D045
:1007900040E0E80601D40120A06001273AE0626948
:1007A0000121019890475E2805D14FF00109626947
:1007B000494601989047216939B900210A465346B4
:1007C00043F82120491C0829FADBB0B3216969B933
:1007D000C11700EBD16253110AEB830122F01F0213
:1007E000821A01200B68904003430B60626901216B
:1007F000019890475D28E8D1B9F1000F09D0002099
:10080000514651F82020D24341F82020401C0828AE
:10081000F7DB02AB224600976FF001000B99FFF760
:10082000A3FD00280CDA401C08D1BBF1000F05D055
:100830004FF0FF300DB0BDE8F08FFFE74046F9E71D
:10084000E90701D108F1010806444FF0000B79E6F1
:10085000CCCCCC0C7F2801D9002208E0064A02EB60
:100860005002C007127800D1120902F00F020120D5
:100870009040084070470000CA280008FEE70000CA
:100880001FB500200190402000900120029003201D
:1008900003906946014800F0E9F91FBD00180140C6
:1008A00010B5044600F056F8002818D000F02AF8D9
:1008B000207000F027F8607000F024F8A07000F0BD
:1008C00021F8E07000F01EF8207121786278E3785A
:1008D0001144A2781A441144814201D0002010BD75
:1008E000074C4021204600F0BDFA0028F9D001F065
:1008F0009DF901224021204600F0B9FA012010BDE7
:10090000001801402DE9F0410024114F26464021F6
:10091000384600F0A7FA0028F9D0002505E00120AC
:100920006D1C01F0D1FE642D05D84021384600F041
:1009300099FA0128F3D06006040E1E2D01D944F067
:100940000104761CF6B2082EE1D32046BDE8F08102
:100950000018014070B501F079F9FFF791FF164DCD
:100960004021284600F07EFA18BB002404E0641CF5
:10097000E4B2012001F0A8FE4021284600F072FAFE
:1009800018B1642C15D2002407E0642CEFD310E0DA
:10099000641CE4B2012001F097FE4021284600F0DB
:1009A00061FA012803D0642C03D2012070BD642CAD
:1009B000EED3002070BD0000001801407047000019
:1009C00010B501F013F907A42046FFF703FC81B22C
:1009D000204600F01BF8BDE810404FF4FA6000F02C
:1009E00033B9000041542B5253540D0A000000004B
:1009F00008B54FF47A720B46009201464FF48062BC
:100A0000014800F0D7FD08BDAC0C002070B50C46C5
:100A100005464FF480611A48FFF7BFFB4FF47A7325
:100A200022462946174801F010F800F025FA164D25
:100A3000044643F6982614491148FFF7D9FF00F001
:100A40001BFA001BB04203D910A001F053FC10E0C8
:100A500015A10B48FFF7ACFB28B1094A298814A05F
:100A600001F048FC05E018A10548FFF7A1FB0028AC
:100A7000E1D02988BDE87040014A11A001F03ABCDC
:100A80001C040020AC0C00200200002054696D659D
:100A90006F757421204E6F204F4B2072656365691E
:100AA0007665642E0A0000004552524F5200000045
:100AB000436F6D6D616E64206661696C65643A2098
:100AC000252E2A730A0000004F4B000072B6FEE785
:100AD00010B590F821100022022905D0042181636D
:100AE00080F82020012010BD01680B6823F00E0360
:100AF0000B6001680B6823F001030B6090F8403035
:100B0000C46B012101FA03F3636080F8211080F8BF
:100B10002020104610BD00002DE9F05F90F8211054
:100B20000024022903D004218163012485E00168A7
:100B30000A6822F00E020A6001680A6822F00102C7
:100B40000A603F4E3E4FB215DFF8F4C0DFF8F09078
:100B5000DFF8ECA0DFF8E8B0DFF8E4E00168783F08
:100B600013011502ACF1640CA9F15009AAF13C0A79
:100B7000ABF1280BAEF1140E4FF48018B14227D917
:100B8000B9420ED0614512D049451DD0514518D00B
:100B9000594518D0714501D1424615E0294EB14260
:100BA00001D1012210E0274E1436B14201D11022AA
:100BB0000AE0244E2836B14206D0224A3C32914205
:100BC00001D11A4600E02A461E49091F0A602BE09F
:100BD000B94213D0614517D0494522D051451DD0A7
:100BE00059451DD0714501D142461AE0B14202D1AA
:100BF0004FF0807215E0134EB14201D1012210E096
:100C0000104E1436B14201D110220AE00D4E2836A2
:100C1000B14206D00B4A3C32914201D11A4600E063
:100C20002A46074980394A60012180F821100021B5
:100C300080F82010416B01B188472046BDE8F09F45
:100C4000800002400804024070B5044600F014F928
:100C50000546601C02D004480078044400F00CF9FA
:100C6000401BA042FAD370BD080000202DE9F84FC8
:100C7000DFF8C8910024A9F1040B23460F2709F1DE
:100C8000040AABF1040ED1E00125A54006EA0502F5
:100C9000AA4276D1DFF8A8C14E68A6EB0C086645DB
:100CA0002BD00DDC032E34D005DC36B3012E19D049
:100CB000022E2FD11BE0112E16D0122E2AD119E0B0
:100CC000B8F5881F19D006DCB8F5803F15D0B8F507
:100CD000801F1FD111E0B8F5001F0ED0B8F5041F1A
:100CE00018D10AE0CB6815E0CB681B1D12E0CB6879
:100CF00008330FE0CB680C330CE08B682BB1012B71
:100D00004FF0080303D0456104E0042302E00561CD
:100D100000E00023FF2A01D8064601E000F10406A6
:100D20004FEA840501D9A5F12005D6F8008007FA1D
:100D300005FC28EA0C0803FA05F548EA0508C6F898
:100D400000804D68ED0070D53E4DAE6946F001065D
:100D5000AE61AD6924F0030605F0010500953A4D3A
:100D600006EB050CDCF80850A607360F07FA06F864
:100D700025EA0805DFF8D480404503D14FF000088C
:100D800025E052E0DFF8C880404502D14FF001086D
:100D90001DE0DFF8C080404502D14FF0020816E0A8
:100DA000DFF8B480404502D14FF003080FE0DFF8D0
:100DB000AC80404502D14FF0040808E0DFF8A08085
:100DC000404502D14FF0050801E04FF0060808FA4F
:100DD00006F848EA0508CCF808804D68D9F80060A4
:100DE000ED024D4601D5164300E096432E604D6856
:100DF000DAF80060AD02554601D5164300E096438F
:100E00002E604D68DBF80060AD035D4601D51643EA
:100E100000E096432E604D68DEF80060ED037546F5
:100E200001D5164300E096432E60641C0A681646FE
:100E3000E2407FF429AFBDE8F88F000008040140CC
:100E400000001110001002400000014000080140A5
:100E5000000C014000100140001401400018014046
:100E6000001C01408068084000D0012070470AB192
:100E7000016170470904FBE7014880687047000082
:100E800008000020024881680278114481607047A0
:100E900008000020074810B5016841F0100101600A
:100EA000032000F075F80F2000F006F800F024F899
:100EB000002010BD0020024070B50D4D04464FF4D7
:100EC0007A712878B1FBF0F00A490968B1FBF0F0BB
:100ED00000F0DCFA48B9102C07D200222146501E3F
:100EE00000F036F800206C6070BD012070BD00007D
:100EF00008000020140000200C4808B5816941F06A
:100F000001018161816901F001010091C16941F034
:100F10008051C161C06900F0805000900448416870
:100F200021F0E06141F00071416008BD0010024015
:100F300000000140002809DB00F01F020121914060
:100F40004009800000F1E020C0F800117047000067
:100F5000F0B40E4B1B680C46C3F30223C3F1070524
:100F6000042D00D90425191D072901D2002300E012
:100F7000DB1E012606FA05F1491E214099409E40DC
:100F8000761E16403143F0BC01F0D8B90CED00E0FC
:100F9000064900F0070208684FF6FF03184040EAD0
:100FA0000220034A10430860704700000CED00E087
:100FB0000000FA052DE9F0470F46050061D0434EC9
:100FC000306800F00700B84209D2306820F007000E
:100FD00038433060306800F00700B84251D12868CB
:100FE0003B4C810712D5400703D5606840F4E060B0
:100FF00060602878000703D5606840F46050606046
:101000006068A96820F0F000084360602878C00795
:1010100028D06868012810D02168022810D08907DC
:1010200000292EDA616821F0030101436160FFF7B6
:1010300023FF804641F288390DE021688903EFE7FC
:101040008901EDE7FFF718FFA0EB0801494502D938
:101050000320BDE8F0876068696800F00C00B0EB21
:10106000810FEFD1306800F00700B8420BD930682B
:1010700020F0070038433060306800F00700B842C5
:1010800001D00120E5E72878400705D56068E968C8
:1010900020F4E060084360602878000706D56068A7
:1010A000296920F4605040EAC100606000F038F81F
:1010B0006168084AC1F30311515CC84006490860E1
:1010C00006480068FFF7F8FE0020C2E70020024053
:1010D00000100240B2280008140000200C0000207C
:1010E0000448054900684968044AC1F30221515C7B
:1010F000C84070471400002000100240C2280008B9
:101100000448054900684968044AC1F3C221515C9A
:10111000C84070471400002000100240C228000898
:101120000E4A51680E4801F00C03042B11D0082B15
:101130000FD10C48C1F38343C903C05C0AD5516881
:10114000084AC1F34041921E515C054A5043B0FB2E
:10115000F1F0704704494843704700000010024016
:1011600000127A00A228000800093D002DE9F84F7E
:10117000040070D02078C04DC00749D06868C0F323
:101180008100012807D06868C0F38100022809D1D6
:101190006868C00306D52868800339D560680028D0
:1011A000E7D035E06068B0F5803F0BD010B1B0F506
:1011B000A02F11D0286820F480302860286820F4FF
:1011C000802002E0286840F480302860606890B198
:1011D000FFF752FE06460AE0286840F480202860A7
:1011E000F0E700BFFFF748FE801B642873D828682B
:1011F0008003F7D50CE0FFF73FFE064605E000BF91
:10120000FFF73AFE801B6428F0D828688003F7D4E3
:1012100020789A4E80074FF001094FF0000839D529
:10122000686810F00C0F07D06868C0F381000228CE
:1012300009D16868C00306D42868800714D52069DE
:10124000012808D110E02069B0B1C6F80090FFF77E
:1012500013FE074605E00AE1FFF70EFEC01B022859
:10126000C4D828688007F7D52868616920F0F8009D
:1012700040EAC10028600DE0C6F80080FFF7FCFDE1
:10128000074604E0FFF7F8FDC01B022823D82868B2
:101290008007F7D4207800072CD57948A169D9B107
:1012A000C0F80090FFF7E8FD074604E0FFF7E4FD13
:1012B000C01B02280FD8686A8007F7D571484FF421
:1012C000FA510068B0FBF1F0009000BF0098411E99
:1012D0000091FAD20EE080E0C0F80080FFF7CCFD6C
:1012E000074604E0FFF7C8FDC01B022875D8686AEE
:1012F0008007F7D42078400760D5E8690027C00050
:1013000008D4E86940F08050E861E869012700F0FE
:10131000805000905C480168C90513D40168834679
:1013200041F480710160FFF7A7FD824606E000BF2F
:10133000FFF7A2FDA0EB0A0064284ED8DBF80000FE
:10134000C005F5D5E06801280AD008B1052813D0FA
:10135000286A20F001002862286A20F0040002E0D8
:10136000286A40F001002862E06841F2883B98B1A9
:10137000FFF782FD82460BE0286A40F004002862F5
:10138000EEE700BFFFF778FDA0EB0A0159455AD8F8
:10139000286A8007F6D50CE0FFF76EFD824605E06F
:1013A000FFF76AFDA0EB0A0159454CD8286A80076F
:1013B000F6D41FB1E86920F08050E861E06988B395
:1013C0006968C1F38101022944D00228C6F860800F
:1013D00004D0FFF751FD044638E034E0FFF74CFD40
:1013E000074604E0FFF748FDC01B02282BD82868F9
:1013F0008001F7D4206AB0F5803F05D16868A16804
:1014000020F4003008436860D4E9080108436968A3
:1014100021F4741108436860C6F86090FFF72CFD52
:10142000044606E025E000BFFFF726FD001B02286A
:1014300009D828688001F7D51BE000BFFFF71CFD25
:10144000001B022802D90320BDE8F88F286880011C
:10145000F4D40EE00128F7D06868226A00F48031E5
:10146000914204D1616A00F47010884201D00120D9
:10147000EAE70020E8E700000010024000004242D6
:1014800080044242140000200070004010B5401E4D
:10149000B0F1807F01D3012010BD4FF0E0246061E6
:1014A0000F21601700F04AFF0020A0610720206193
:1014B000002010BD70B590F83C20012A2CD00124EA
:1014C00080F83C40022280F83D2003685A689D68FD
:1014D00022F070060A6832435A60104B02689A4242
:1014E0000ED00F4B9A420BD0B2F1804F08D00D4B6B
:1014F0009A4205D00C4B9A4202D00C4B9A4204D12E
:10150000496825F080031943916080F83D4000212F
:1015100080F83C10084670BD022070BD002C0140D0
:10152000003401400004004000080040000C00406E
:1015300010B5040003D094F83D0010B107E001207D
:1015400010BD002084F83C00204600F01FF8022067
:1015500084F83D00211D206800F0C4FB012084F8C0
:10156000460084F83E0084F83F0084F8400084F888
:10157000410084F8420084F8430084F8440084F871
:10158000450084F83D00002010BD000008B500684B
:101590000649884208D10648C16941F01001C1617D
:1015A000C06900F01000009008BD0000001000406D
:1015B000001002402DE9F84F044690F84200DDF893
:1015C00028901F4615460E46202802D00220BDE86E
:1015D000F88FF6B1EDB14FF00008C4F84480222135
:1015E00084F8421001212163C4F83480FFF744FCE1
:1015F000A5858246E585A0684FF4805B584501D1FA
:10160000206940B135460026A7F800804FF0200839
:101610003AE00120DBE70025F6E720680168C9060B
:101620000AD5016841680091398829B102206063B8
:1016300084F842800020CAE70168890618D525B1E0
:10164000A168594528D031B107E04068C0F30800CF
:1016500026F8020B06E02169F1B1406800F07F0036
:1016600005F8010B3888401C3880E08D401EE0856D
:10167000B9F1FF3F08D0FFF7FFFBA0EB0A01494596
:101680000CD8B9F1000F09D0E08D0028C5D1A08D8C
:10169000E18D401A3880CBE74068E1E784F842806A
:1016A000032094E770477047F8B50168044608685E
:1016B000CA684B6910F00F0F4FF0000559D003F0C6
:1016C000010602F49077374365D0C10705D0D105F4
:1016D00003D5616C41F001016164410705D5D9076B
:1016E00003D0616C41F002016164810705D5D9071F
:1016F00003D0616C41F004016164010707D502F079
:101700002001314303D0616C41F008016164616CD8
:1017100000293AD0800604D5900602D5204600F074
:101720005EFB20684069616CC0F38010090700D43B
:1017300060B3204600F02CFB20684069400621D5AC
:101740002068143050E8001F21F0400140E80012EA
:10175000002AF5D1E06BA8B16D494163E06BFFF75A
:10176000DBF9002811D0E06B416B01B0BDE8F0401F
:10177000084783060FD593060DD52046BDE8F840EF
:1017800000F02DBB2046FFF78EFFF8BD2046FFF787
:101790008AFF6564F8BD266B2023012E7CD1C60626
:1017A0007AD5D60678D508684868009048694FF021
:1017B0000206400640D5E16B086840680004000C52
:1017C000E8D0A28D8242E5D9E085886920282DD015
:1017D00020680C3050E8001F21F4807140E80012AE
:1017E000002AF5D12068143050E8001F21F00101D3
:1017F00040E80012002AF5D12068143050E8001F9C
:1018000021F0400140E80012002AF5D184F842306E
:10181000256320680C3050E8001F21F0100140E8DB
:101820000012002AF5D1E06BFFF752F96663A08D34
:10183000E18D401A81B22AE0A08DE18D401A81B27B
:10184000E08D0028A6D00029A4D022680C3252E8EE
:10185000000F20F4907042E80007002FF5D12068B7
:10186000143050E8002F22F0010240E80027002F3A
:10187000F5D184F84230256320680C3050E8002F01
:1018800022F0100240E80023002BF5D166632046C9
:10189000FFF708FFF8BDFFE705062BD5150629D58C
:1018A00094F841002128F5D1A068B0F5805F01D1FE
:1018B0002069B0B1206A411C21622168007848602B
:1018C000E08C401E0004000CE084E3D12068C16875
:1018D00021F08001C1602068C16841F04001C16011
:1018E000D8E7206A0088C0F308004860206A801C9E
:1018F0002062E5E74006CDD55006CBD5CA68204624
:1019000022F04002CA6084F8413000F0EEF8C1E7EE
:10191000811D000870B5040004D094F84100002532
:1019200010B106E0012070BD84F84050204600F060
:1019300023F8242084F841002068C16821F4005174
:10194000C160204600F0ACFA2068016921F49041A2
:1019500001612068416921F02A0141612068C16864
:1019600041F40051C1606564202084F8410084F88E
:1019700042006563002070BD70B586B000240094FD
:1019800001940294039403682B482A4E02210322F7
:101990000515B34221D1836943F480438361836990
:1019A00003F480430493836943F0040383618069F3
:1019B000224E00F0040004900802CDE900010392D9
:1019C00069463046FFF752F9CDE900546946304682
:1019D0000294FFF74BF906B070BD194EB342FAD12D
:1019E000C36943F48023C361C36903F48023049370
:1019F000836943F0080383618069CDE9005100F0F9
:101A00000800CDE903200F4D69462846FFF72EF95F
:101A1000E814CDE90004694628460294FFF726F948
:101A2000002211462720FFF793FA2720FFF782FABA
:101A3000D1E70000003801400010024000080140DA
:101A400000480040000C014070472DE9F84304466F
:101A500090F84100984616460D46202802D00220F4
:101A6000BDE8F88385B17EB100206064212084F850
:101A70004100FFF701FAA6848146E684A06820278A
:101A8000B0F5805F02D003E00120E9E7206910B1E2
:101A90002E4600250EE000260CE08021204600F0B6
:101AA0005BFAA8B9C6B116F8010B21684860E08C52
:101AB000401EE084E08C4B464FF00002CDF80080E1
:101AC0000028EAD14FF04001204600F045FA40B12D
:101AD00084F841700320C3E735F8020BC0F3080017
:101AE000E3E784F841700020BAE77047FEE70000A2
:101AF00030B585B000241C480094019402940394EE
:101B0000816941F040018161816901F040010491E6
:101B1000816941F010018161816901F01001049136
:101B2000816941F008018161816901F00801049136
:101B3000816941F00401816180690C4D00F004006D
:101B40000490012240212846FFF791F9402000909F
:101B50000120CDE901040320039069462846FFF7E0
:101B600085F805B030BD00000010024000180140AB
:101B70001CB500240E4800940C49019401604721D3
:101B8000C0E901144FF6FF718461C160FFF7D0FC1A
:101B900008B1FEF79BFF0094694605480194FFF7E2
:101BA00089FC002801D0FEF791FF1CBD0010004009
:101BB0001C0C00200C4810B50A4901604FF4E131BB
:101BC0004160002181600C22C160C0E90412816182
:101BD000C161FFF79FFE002803D0BDE81040FEF76B
:101BE00075BF10BD00380140640C00200C4810B5D2
:101BF0000A4901604FF4E1314160002181600C220B
:101C0000C160C0E904128161C161FFF783FE002851
:101C100003D0BDE81040FEF759BF10BD004800409A
:101C2000AC0C0020FEE7FEE7704700001FB5002067
:101C3000029040200090012001900320039069460B
:101C40000148FFF713F81FBD0018014010B5FFF75A
:101C5000EDFF094C002240212046FFF708F9122031
:101C6000FEF7F2FF012240212046FFF700F9BDE810
:101C700010401E2000F028BD001801407047FFF7FB
:101C800001B930B58FB028216846FEF786FA1421D5
:101C90000AA8FEF782FA01210804CDE90010002409
:101CA000029402250491CDE907504FF4E010099009
:101CB0006846FFF75BFA08B172B6FEE70F20CDE980
:101CC0000A054FF48060CDE90C4002210AA80E9469
:101CD000FFF770F9002801D072B6FEE70FB030BDF3
:101CE00070470000F0B50268204C214D214E224F74
:101CF000224B4FF0804CA04209D0984207D060455B
:101D000005D0A84203D0B04201D0B84204D122F09D
:101D1000700E4A6842EA0E02A04209D0984207D0EB
:101D2000604505D0A84203D0B04201D0B84203D1EB
:101D300022F44075CA682A434D6922F080022A4382
:101D400002608A68C2620A688262A04201D0984238
:101D500001D109690163012141610169C90703D00A
:101D6000016921F001010161F0BD0000002C01407A
:101D70000004004000080040000C00400034014016
:101D800010B5406A0021C185C184FFF78CFC10BDED
:101D900001680C3151E8002F22F4907241E80023D1
:101DA000002BF5D10168143151E8002F22F0010217
:101DB00041E80023002BF5D1016B012909D101680D
:101DC0000C3151E8002F22F0100241E80023002BD3
:101DD000F5D1202180F8421000210163704708B539
:101DE00090F84210222901D0022008BD82684FF4E9
:101DF00080539A4201D1016921B1816A9A421BD074
:101E00004AB10AE00268816A5268C2F308020A8095
:101E1000816A891C08E0026972B10268526802F0A6
:101E20007F020A70816A491C8162C18D491E0904C2
:101E3000090CC18503D01BE002685268F1E7016814
:101E4000CA6822F02002CA600168CA6822F480725F
:101E5000CA6001684A6922F001024A61202180F8C3
:101E6000421000214163026B012A03D0FFF7ECFD11
:101E7000002008BD016301680C3151E8002F22F0F9
:101E8000100241E80023002BF5D101680A68D20650
:101E900002D50A6849680091818DFFF703FCE7E7E6
:101EA00070B5044600680169E26821F440511143AD
:101EB00001612169A0680843616908432168CA6813
:101EC00041F20C639A430243CA6020684169A269E7
:101ED00021F44071114341611E492068884202D1BA
:101EE000FFF70EF901E0FFF7FBF800EBC00101EB93
:101EF0000012606864218000B2FBF0F3B3FBF1F3E1
:101F00006FF018067343B2FBF0F5B2FBF0F605EB89
:101F10008305322303EB0515B5FBF1F5B6FBF1F6AE
:101F200005F0F00505EB0615B2FBF0F6B2FBF0F09C
:101F3000B0FBF1F06FF01802504306EB800003EBAA
:101F40000010B0FBF1F0216800F00F002844886019
:101F500070BD0000003801402DE9F843984617464F
:101F60000D460446089E24E0701C22D0FEF784FF34
:101F7000A0EB0800B0421AD8CEB12068C16849076A
:101F800017D5802D15D0402D13D00168C9430907FE
:101F90000FD401680025406800902046FFF7F8FE46
:101FA0000820606484F840500120BDE8F8830320D5
:101FB000FBE72068006835EA000004D00020B84242
:101FC000D2D00020F1E70120F9E700000148FFF737
:101FD0006BBB0000AC0C0020FEE7000010B511A0A8
:101FE00000F088F915A42046FEF7F4F881B22046E7
:101FF000FEF70CFD15A000F07DF916A42046FEF7B3
:10200000E9F881B22046FEF701FD1CA000F072F94C
:102010001DA42046FEF7DEF881B22046BDE8104040
:10202000FEF7F4BC57494649C4A3CABDC9E8D6C3A4
:10203000CEAA4150C4A3CABD0A00000041542B439C
:10204000574D4F44453D320D0A000000C9E8D6C344
:1020500041500A0041542B43575341503D224553B0
:102060005038323636222C22313233343536373836
:102070003930222C352C330D0A000000C9E8D6C3B4
:10208000B1BEBBFA49500A0041542B43495041505C
:102090003D223139322E3136382E352E31220D0A7D
:1020A00000000000F8B506464FF47A7015460C465D
:1020B00000900F4B4FF480620E490F48FFF77AFAF9
:1020C0000EE023462A460DA10A48FEF78BF810A120
:1020D0000848FEF76DF8411C22883046FEF744F8A8
:1020E0000CA10448FEF764F80028EAD1F8BD00000E
:1020F000000000201C000020AC0C0020252A5B0DF5
:102100000A5D2B4950442C256868752C256875009C
:102110003A0000002B4950440000000070B505460D
:102120008EB014460E460EA000F0E4F83421684646
:10213000FEF733F823462A460CA1684600F0EAF879
:102140006846FEF747F881B26846FEF75FFC4FF439
:102150007A73224631460A48FFF777FC0EB070BD0D
:10216000B7A2CBCDCAFDBEDD0A00000041542B430F
:10217000495053454E443D25642C25640D0A00000A
:10218000AC0C002010B511A000F0B4F815A4204646
:10219000FEF720F881B22046FEF738FC15A000F0CB
:1021A000A9F816A42046FEF715F881B22046FEF7DE
:1021B0002DFC1BA000F09EF81CA42046FEF70AF898
:1021C00081B22046BDE81040FEF720BC5749464981
:1021D000C4A3CABDC9E8D6C3CEAA535441C4A3CA36
:1021E000BD0A000041542B43574D4F44453D310D2E
:1021F0000A000000C1ACBDD341500A0041542B433A
:10220000574A41503D225265646D694B3530222C4E
:1022100022313233343536373839220D0A00000086
:10222000B1BEBBFA4950CEAA0A00000041542B436C
:1022300049505354413F0D0A0000000010B50CA056
:1022400000F058F80EA42046FDF7C4FF81B22046E6
:10225000FEF7DCFB0EA000F04DF811A42046FDF7C0
:10226000B9FF81B22046BDE81040FEF7CFBB0000A9
:10227000C9E8D6C3CAB9C4DCB6E0C1ACBDD30A0054
:1022800041542B4349504D55583D310D0A00000033
:10229000BFAAC6F4544350B7FECEF1C6F70A0000F9
:1022A00041542B4349505345525645523D312C38E9
:1022B0003038300D0A00000010B50446FEF780FBF0
:1022C000012C02D0022C03D004E0FFF75BFF01E0F9
:1022D000FFF784FEBDE8104001A000F00BB800003D
:1022E00057494649C4A3BFE9B3F5CABCBBAFB3C99C
:1022F000B9A60A000FB4054B10B503A9044A029809
:1023000000F03CF810BC5DF814FB00000527000845
:10231000180000200FB4084B10B504A902AA0398B6
:1023200000F02CF8044602A9002000F0C8F920466D
:1023300010BC5DF814FB0000BF2600080907090E59
:10234000002804DB00F1E02080F80014704700F062
:102350000F0000F1E02080F8141D704702E008C86B
:10236000121F08C1002AFAD170477047002001E00F
:1023700001C1121F002AFBD1704700002DE9FF4F59
:102380008BB088460546002606E025280BD0DDE9FF
:102390000D1290476D1C761C28780028F5D10FB0DF
:1023A0003046BDE8F08F0024A146A2460122AE4986
:1023B00000E0044315F8013F203B02FA03F0084215
:1023C000F7D128782A2810D06FF02F022878A0F1B2
:1023D0003001092915D809EB890102EB410144F0CC
:1023E000020400EB01096D1CF0E758F8041B5FEADA
:1023F000010903D544F40054C9F1000944F0020472
:102400006D1C28782E2817D115F8010F44F004040C
:102410002A280ED06FF02F022878A0F13001092968
:102420000AD80AEB8A0102EB410100EB010A6D1C9C
:10243000F2E758F804AB6D1C28786C280FD006DC46
:102440004C2817D068280DD06A2814D104E07428CD
:1024500010D07A280FD10DE044F400140AE044F4BF
:10246000801401E044F440146978814202D104F5FB
:1024700080146D1C6D1C2878692865D006DC002846
:102480008DD0632827D0642806D15DE06E2808D05F
:1024900073282AD0752877D0DDE90D129047761C75
:1024A000E0E0C4F30250022809D003280DD0D8F888
:1024B000001004280DD00E6008F10408D2E0D8F80E
:1024C0000010F217C1E90062F6E7D8F800100E809C
:1024D000F2E70E70F0E718F8041B8DF800100020EA
:1024E0008DF80100EB46012003E058F804BB4FF0E3
:1024F000FF3061074FF0000701D40AE07F1C574509
:102500000DDA8742FADB1BF807100029F6D106E046
:102510007F1C8742FCDB1BF807100029F8D1DDE99E
:102520000D23A9EB07008146214600F0B1F83044A5
:10253000C61904E0DDE90D121BF8010B90477F1E60
:10254000F8D22146484688E058F8040BC4F30251FB
:102550004FF00A0B032900D100B2042900D140B288
:10256000002802DA40422D2102E0210505D52B2169
:102570008DF82410012104E006E0E10710D02021AD
:10258000F6E708AF089113E058F8040BC4F30251C2
:102590004FF00A0B032900D180B2042900D1C0B248
:1025A0000021EEE75946FDF74FFF303107F8011DD6
:1025B0000028F7D1ADEB070000F1200B600702D532
:1025C00024F4803401E04FF0010ADA4502DDAAEB81
:1025D0000B0000E00020824600EB0B01089801444C
:1025E000A9EB01000A90E00306D4DDE90D232146A2
:1025F0000A9800F04DF806444FF0000908E009A9D8
:1026000011F80900DDE90D12904709F10109761C66
:1026100008998945F3DBE0030CD5DDE90D2321465C
:102620000A9800F035F8064404E0DDE90D12302088
:102630009047761CBAF10001AAF1010AF5DC05E029
:10264000DDE90D1217F8010B9047761CBBF1000174
:10265000ABF1010BF4DC0A982146DDE90D2300F013
:1026600005F806446D1C97E6092801002DE9F041A4
:10267000044600251E461746880404D405E0394662
:102680002020B0476D1C641EF9D52846BDE8F081B6
:102690002DE9F041044600251E469046C80301D5A9
:1026A000302700E02027880404D505E0414638465D
:1026B000B0476D1C641EF9D52846BDE8F0810A6854
:1026C000531C0B60107070470D4900220B685A6252
:1026D0000A68136843F00103136009684A6A82427A
:1026E000FCD3086A41F21112104207D1086A921015
:1026F000104203D1086820F0010008607047000014
:102700001C0C002013B54FF47A730122694602486D
:10271000FFF79BF900981CBD640C002094B0FEF7F5
:10272000B9FBFFF7AEFAFFF7E3F9FFF743FAFFF75C
:102730001FFAFFF75BFA2CA0FFF7DCFD0120FFF783
:10274000BBFDFFF77BFD2BA0FFF7D4FD2E4C41F224
:10275000883502A8FEF7A4F8002842D09DF80B00A7
:1027600000060FD59DF8090000F07F008DF80900E4
:102770009DF80810CDE900109DF80B309DF80A2057
:1027800022A10AE09DF809109DF80800CDE900019A
:102790009DF80B309DF80A2024A104A8FFF7BAFD8C
:1027A00082B204A90020FFF7B9FC27A0FFF7A2FD21
:1027B000154A2848911CFFF775FC62886AB12548C4
:1027C00000901346217824A0FFF794FD62882149E8
:1027D0002078FFF7A3FC002060802846FEF734FA3B
:1027E000B7E72BA0E2E70000CFB5CDB3C6F4B6AF94
:1027F0000A000000544350B7FECEF1C6F7D2D1C64E
:10280000F4B6AF0A000000000400002054656D70AB
:102810003A2D25642E2564A1E62C48756D693A256C
:10282000642E256425250D0A0000000054656D7096
:102830003A25642E2564A1E62C48756D693A256415
:102840002E256425250D0A00CAFDBEDDD2D1B7A212
:10285000CBCD0A001C080020BDD3CAD5B5BDCAFD2A
:10286000BEDDA1A3C1ACBDD34944203D202564A356
:10287000AC20CAFDBEDDB3A4B6C8203D202564A3AC
:10288000AC20C4DAC8DD203D20252E2A730A0000C2
:102890004448543131B6C1C8A1CAA7B0DC0A00000F
:1028A000010202030405060708090A0B0C0D0E0FAE
:1028B00010100000000000000000010203040607E1
:1028C00008090000000001020304DDDDDDDDDCBBE2
:1028D000BBDDDDDDDDDDDDDDDDDD98888888888838
:1028E000888877777777778888888555555666669C
:1028F0006666666666666668888883333332222237
:102900002222222222222228888D00002C2900083F
:10291000000000201C0000005C230008482900087B
:102920001C000020DC1000006C23000800000000E8
:102930000000000001000000100000000000000086
:0829400000127A000000000003
:0400000508000131BD
:00000001FF
